:1000000027C04BC017C949C048C0CAC846C045C070
:1000100044C043C042C041C040C03FC03EC00000D9
:10002000000037000000000036000000000038002B
:10003000020202020202020202020102040810206D
:1000400020041008010200000400000000004B0919
:1000500011241FBECFE5D2E0DEBFCDBF10E0A0E689
:10006000B0E0E6E7FFE102C005900D92AA3AB107C1
:10007000D9F721E0AAEAB0E001C01D92AD38B2077D
:10008000E1F710E0C8E2D0E003C02197FE0167DF8E
:10009000C732D107D1F78AD96CCFB2CFCF92DF92D6
:1000A000EF929C01255E3F4FFB01C080D180E28032
:1000B000FC01C192D192E192CF01E217F307A1F7BF
:1000C000EF90DF90CF90089520E0DC0160FF03C047
:1000D00001C02D932D936250E0F77040D0F7089542
:1000E00080E991E00895823089F018F4813051F070
:1000F0000895833019F0843009F008958CB58F7D10
:100100008CBD08958AB58F778ABD08958AB58F7D95
:10011000FBCFCF93DF93282F30E0F901EC5BFF4F4B
:100120008491F901E65CFF4FD491F901E05DFF4F46
:10013000C491CC2399F08111D6DFEC2FF0E0EE0FC3
:10014000FF1FEC5DFF4FA591B491EC91ED2381E091
:1001500090E009F480E0DF91CF91089580E090E095
:10016000FACFCF93DF9390E0FC01E65CFF4F249140
:10017000805D9F4FFC0184918823D1F090E0880F2F
:10018000991FFC01E25EFF4FA591B491FC01E65D71
:10019000FF4FC591D491623071F49FB7F8943C91B0
:1001A000822F809583238C93E8812E2B28839FBFF9
:1001B000DF91CF9108958FB7F894EC912E2B2C936B
:1001C0008FBFF6CF3FB7F8948091AF009091B00009
:1001D000A091B100B091B20022B708B601FE05C0EF
:1001E0002F3F19F00196A11DB11D3FBFBA2FA92FB6
:1001F000982F8827BC01CD01620F711D811D911DB3
:1002000043E0660F771F881F991F4A95D1F708951D
:100210003F924F925F926F927F928F929F92AF9296
:10022000BF92CF92DF92EF92FF920F931F93CF93E3
:10023000DF9300D01F92CDB7DEB7D0900B01809135
:100240000E0190910F01A0911001B0911101892B25
:100250008A2B8B2BD1F0B6DF00910701109108019A
:100260002091090130910A01601B710B820B930BE5
:1002700000910E0110910F01209110013091110198
:100280006017710782079307D0F29CDF6093070124
:10029000709308018093090190930A01E09116017F
:1002A000F0911701309759F04091120150911301CC
:1002B00060911401709115018D2D0995D82EE09053
:1002C0000501F09006014D2C512C712C612CE1148C
:1002D000F10409F45AC0D7011C96CC901C97809168
:1002E0000C0190910D018436910510F41C961C921E
:1002F000D701ED91FC918280938019821A821B8232
:10030000DD2069F15701B6E0AB0EB11C10E000E052
:10031000F50161915F016623E9F032803320D1F06D
:1003200070E090E080E06F5F7F4F8F4F9F4FA301A1
:100330009201F7DB232D30E050E040E02F5F3F4F8C
:100340004F4F5F4FEEDBE1E0F0E0EC0FFD1FE00F01
:10035000F11F80830F5F1F4F03301105C9F609811C
:100360001A812B81D7011D964D915C911E97129693
:100370006D917C91C701F4010995D7011C96CC922F
:100380001C971496ED90FC90A2CF80910301909160
:1003900004019C012F5F3F4F309304012093030120
:1003A00049970CF445C08FB7F8940091FB00109169
:1003B000FC002091FD003091FE008FBF8091FF0076
:1003C00090910001A0910101B0910201081B190B4D
:1003D0002A0B3B0B21F401E010E020E030E080919B
:1003E00003019091040168EE73E081DDBC01990F77
:1003F000880B990BA9019801C9DB30930D0120935B
:100400000C0110920401109203012FB7F89480910F
:10041000FB009091FC00A091FD00B091FE002FBF69
:100420008093FF0090930001A0930101B09302011B
:100430000F900F900F90DF91CF911F910F91FF9030
:10044000EF90DF90CF90BF90AF909F908F907F9074
:100450006F905F904F903F9008958F929F92AF92D0
:10046000BF92CF92DF92EF92FF924B015C01AADE26
:100470006B017C01A7DE6C197D098E099F09683E1E
:10048000734081059105B0F321E0821A9108A1081B
:10049000B10888EEC80E83E0D81EE11CF11C81145F
:1004A0009104A104B10431F7FF90EF90DF90CF9059
:1004B000BF90AF909F908F900895CF93DF93EC0102
:1004C000DB014881E981FA81C42FCC0FCC0FCC0F1E
:1004D000D0E0CE0166E570E00ADD292F842F80741C
:1004E000342F307247FD78C0811165C0311105C0CD
:1004F000892F8095492F282F04C045E5490F30E00A
:100500002BEAEF3F39F1EE2309F484C0222339F0BE
:100510008E2F90E0622F70E00196E9DC292F4423B2
:1005200039F08E2F90E0642F70E00196E0DC492FC7
:10053000332339F08E2F90E0632F70E00196D7DCE3
:10054000392FE0956E2F70E0CB010196D0DC290F9A
:10055000490F390FFF3F31F16F2F70E0CB01C7DC3E
:10056000E1E0F11101C0E0E0E90F09F457C02223F6
:1005700039F08E2F90E0622F70E00196B8DC292FC1
:10058000442339F08E2F90E0642F70E00196AFDCA9
:10059000492F332339F08E2F90E0632F70E00196BE
:1005A000A6DC392F2C9311964C93119712963C93FD
:1005B000DF91CF910895311109C0CE016BEA70E04F
:1005C00096DC8BEA891B4AEA420F95CF80E0492FDF
:1005D0004095392F20E095CF81110FC0311109C00E
:1005E000CE016BEA70E083DC4BEA491B35E5390F3D
:1005F000F1CF392F309540E084CF311106C085E529
:10060000890F3BEA321B282FF6CF8AEA890F90E048
:1006100035E5F8CF3FEF4FEF2FEF9CCF30E040E0D4
:1006200020E0C0CFEF92FF920F931F93CF93DF9301
:100630003091AB003F5F232F27702093AB00C0E8C1
:1006400030FFC0E021FDC064247009F0C062C05FCB
:10065000FC018C010D5F1F4FE12CFF24F394D0E0CF
:100660002485222331F0622F70E0C70151DC21E0A4
:10067000260F2187822F90E00196BE0138DC911170
:1006800011C01682222319F06FEF620F6187319635
:100690000E171F0729F7DF91CF911F910F91FF9040
:1006A000EF90089591509683EDCF4F925F926F92A5
:1006B0007F928F92AF92BF92CF92DF92EF92FF9292
:1006C0000F931F93CF93DF933C01EB017BDDF3018D
:1006D00027853089621B730B6A307105B8F3F89473
:1006E000E881F98158B3506148B34F7E48BBCA8452
:1006F0008F812C2D281B822F2F83BF844A805B8003
:100700006D857C85DE846F5F7F5FD3949E813885A5
:10071000A984EB841181D20120E0C32F022F322F54
:100720003181112788943111380F08F43FEF8195FA
:10073000889460FD130F1795889461FD130F17952A
:10074000889462FD130F1795889463FD130F179516
:10075000889464FD130F1795889465FD130F179502
:10076000889466FD130F1795889467FD130F1795EE
:100770008894232F6111212F8C0D122F002C58BB30
:1007800017FF48BB30812227889448BB3111390FAD
:1007900058BB16FF48BB08F43FEF9195889448BBBF
:1007A00070FD230F58BB15FF48BB2795889471FD3A
:1007B000230F48BB2795889458BB14FF48BB72FD94
:1007C000230F2795889448BB73FD230F58BB13FF55
:1007D00048BB2795889474FD230F48BB27958894C0
:1007E00058BB12FF48BB75FD230F2795889448BB63
:1007F00076FD230F58BB11FF48BB2795889477FDE2
:10080000230F48BB2795889458BB10FF48BB132F74
:100810007111122F9A0D48BB00C058BB17FF48BB7F
:1008200032812227889448BB31113C0F58BB16FFF8
:1008300048BB08F43FEFEB0DF11D48BBD0FC230F84
:1008400058BB15FF48BB27958894D1FC230F48BBA4
:100850002795889458BB14FF48BBD2FC230F2795DB
:10086000889448BBD3FC230F58BB13FF48BB279584
:100870008894D4FC230F48BB2795889458BB12FF5B
:1008800048BBD5FC230F2795889448BBD6FC230F83
:1008900058BB11FF48BB27958894D7FC230F48BB52
:1008A0002795889458BB10FF48BB132FD110122FE7
:1008B000C19548BBCE0D002C58BB17FF48BB3181FA
:1008C0002227889448BB3111380F58BB16FF48BB0C
:1008D00008F43FEF8195889448BB60FD230F58BB17
:1008E00015FF48BB2795889461FD230F48BB2795CA
:1008F000889458BB14FF48BB62FD230F279588944A
:1009000048BB63FD230F58BB13FF48BB2795889452
:1009100064FD230F48BB2795889458BB12FF48BB42
:1009200065FD230F2795889448BB66FD230F58BBB0
:1009300011FF48BB2795889467FD230F48BB279577
:10094000889458BB10FF48BB132F6111122F8C0DD8
:1009500048BB119709F013CFB201052C000C880B8E
:10096000990B20EF30E040E050E0DBD86B017C01D8
:10097000F3E0F694E794D794C794FA95D1F7C201BF
:100980006BE970E0B4DA292F30E0C901B0E0A0E0F3
:10099000880F991FAA1FBB1F8C0D9D1DAE1DBF1D6B
:1009A000893EE3E09E07A105B10590F1885E934082
:1009B000A109B10922E0B695A795979587952A9543
:1009C000D1F79C0143E0220F331F4A95E1F7232F13
:1009D00033276091AA0070E0860F971F820F931F44
:1009E0004091FB005091FC006091FD007091FE0071
:1009F000292F3327420F531F611D711D4093FB00A8
:100A00005093FC006093FD007093FE008093AA0059
:100A10007894D8DBF301708B6787DF91CF911F91BA
:100A20000F91FF90EF90DF90CF90BF90AF908F909D
:100A30007F906F905F904F900895BC9A0895EF92C9
:100A4000FF920F931F93CF93DF93CDB7DEB76297DB
:100A50000FB6F894DEBF0FBECDBF7C01DC011C9643
:100A60008C917A8369835C834B835E834D830D878E
:100A70001E872F878130F9F4CE010196D3DD83E004
:100A8000888B1A8A198AD701ED91FC910484F58527
:100A9000E02DBE016F5F7F4FC701099562960FB6CB
:100AA000F894DEBF0FBECDBFDF91CF911F910F91A4
:100AB000FF90EF9008951C861B861A86198618866B
:100AC0001F82DDCFEF92FF920F931F93CF93DF939F
:100AD000CDB7DEB762970FB6F894DEBF0FBECDBFBD
:100AE0007C01DC011C968C917A8369835C834B8347
:100AF0005E834D830D871E872F878130F1F4CE01F1
:100B0000019690DD188A1A8A198AD701ED91FC9115
:100B10000484F585E02DBE016F5F7F4FC701099505
:100B200062960FB6F894DEBF0FBECDBFDF91CF91B6
:100B30001F910F91FF90EF9008951C861B861A86D7
:100B4000198618861F82DECF982F613021F48130FC
:100B500021F482E00895611102C081E0911180E0EA
:100B6000089590E080E00895FC01858596850895BC
:100B70000F931F93CF93DF9300D01F92CDB7DEB7B3
:100B8000AB0119821A821B82DC01ED91FC9101906C
:100B9000F081E02D00E010E020E0BE016F5F7F4FAC
:100BA00009950F900F900F90DF91CF911F910F91AA
:100BB0000895DBD94F925F926F927F928F929F92AE
:100BC000AF92BF92CF92DF92EF92FF920F931F935B
:100BD000CF93DF93CDB7DEB729970FB6F894DEBF7A
:100BE0000FBECDBF1092F8001092F7000091D70011
:100BF00001111EC080911801833209F046C0609136
:100C00001D0180911C0180938A0160938B0170E02B
:100C100090E080E075D826E935E946E95EE3FCD846
:100C200020E030E044E353E4D4D73CD860938C0117
:100C30001091D50011117EC0011118C083E080937E
:100C4000AD001092AC0080911801833249F48BE121
:100C5000EEE1F1E0A9E3B1E001900D928A95E1F7B0
:100C600088E290E090938100809380008091D6008C
:100C70008330A1F08BE1E9E3F1E0A4E5B1E001907C
:100C80000D928A95E1F781E0B7C010928A018FEF4B
:100C900080938B018EEF80938C01CACF0091D4009A
:100CA000BE01695F7F4F8AE891E007DC8091AC006C
:100CB00090E065E070E01BD9805A9F4F7C016F8007
:100CC000788489841C821D821E82BE016F5F7F4FE3
:100CD000CE010496F2DBBE016F5F7F4F84E591E0A9
:100CE000DDD9F7018081181770F6E10FF11D8181C0
:100CF00090E063E070E0FBD801110FC09C012C5A1A
:100D00003E4F875C9E4FFC0180819181A281F90159
:100D100080839183A2831F5FE4CFFC01EC5AFE4FD6
:100D2000608271828282875C9E4FFC016082718248
:100D30008282F1CF113009F044C0011131C088E244
:100D400090E0909381008093800082E08093AD00DA
:100D500010928A0182E080938200BE016F5F7F4F14
:100D60008AE891E0AADBBE016F5F7F4F84E591E0E6
:100D700095D929960FB6F894DEBF0FBECDBFDF918F
:100D8000CF911F910F91FF90EF90DF90CF90BF9088
:100D9000AF909F908F907F906F905F904F9008954D
:100DA00080918A01883F58F4885F80938A018091FE
:100DB0007E0090E09093810080938000CBCF80E014
:100DC000F4CF123009F064C0011119C083E08093A0
:100DD000AD0088E290E09093810080938000BE0196
:100DE0006F5F7F4F8AE891E068DBBE016F5F7F4FE6
:100DF00084E591E053D982E080938200BACF80915C
:100E00007E0090E0909381008093800004E511E0E3
:100E10008FE6A82E81E0B82E90E4492E512C612C4B
:100E2000712C90908B01692D70E090E080E068D784
:100E300026E935E946E95EE3EFD720E030E044E318
:100E400053E4C7D62FD7862E80918A0190E09C016B
:100E5000205231096901032E000CEE08FF0880962C
:100E60002817390744F4F0D5A301920173D6C60EB2
:100E7000D71EE81EF91EC9829A828B82B801CE0164
:100E800001961BDB0D5F1F4FA016B10651F6B3CFC5
:100E9000133009F06ECF011109C082E08093AD00DC
:100EA00088E290E09093810080938000BE016F5FA4
:100EB0007F4F8AE891E001DBBE016F5F7F4F84E5E1
:100EC00091E0ECD8E0CE0F931F93CF93DF9300D047
:100ED00000D0CDB7DEB769837A838B838EE18093B0
:100EE0000B0182E08C83BE016F5F7F4F8FE691E044
:100EF000D5D88ED964E670E080E090E0AEDA00915B
:100F000005011091060101151105A9F0F8012281D2
:100F100033812115310541F08585968563E070E0C8
:100F2000E6D7BC01C901D0D8F80104811581EBCF07
:100F3000E1E0EC83D8CF6CD964E670E080E090E02B
:100F40008CDAFC81F130A1F780917F0080930B0156
:100F50000F900F900F900F90DF91CF911F910F91F5
:100F60000895FF920F931F93CF93DF938430C1F4C2
:100F70008091D5009B01280F311D243031052CF4C0
:100F8000680F37FF03C063E001C060E06093D500E5
:100F90001092D700DF91CF911F910F91FF900ACE51
:100FA000EB018530B9F460E070E880E08CDF60919F
:100FB000D600CE01860F911D843091052CF4C60F0A
:100FC00097FF03C0C0E001C0C3E0C093D6001092F9
:100FD000D400DECF8730C1F460917F00CE01860F50
:100FE000911D813591052CF4C60F97FF03C0C0E019
:100FF00001C0C0E5C0937F00C0930B01DF91CF918A
:101000001F910F91FF9004C98630C9F46FEF70E013
:1010100080E059DF8091AD006091D4009E01260FE1
:10102000311D8217130649F044F0C60F37FF02C086
:10103000CFEFC80FC093D400ADCFC0E0FBCF82305C
:1010400089F46091AC00CE01860F911D8630910528
:101050002CF4C60F97FF03C0C5E001C0C0E0C093E9
:10106000AC0098CF883009F045C08091D50082301F
:1010700048F090918A0190931C0190918B0190937C
:101080001D0102C08111F9CF90917F009093190149
:1010900080931A0180917E0080931B0183E28093EC
:1010A00018018BE1E9E3F1E0AEE1B1E001900D92CE
:1010B0008A95E1F708E111E0D0E0C0E0F801F19095
:1010C0008F01CE0118D5F81619F06F2DCE011BD562
:1010D0002196C132D10591F764E670E080E090E09E
:1010E000BCD91092D6001092D40060E070E08FEF6F
:1010F000EADE50CF8330B1F460917E00CE01860FDE
:10110000911D893F910524F088EF80937E0042CFA6
:1011100097FF02C088E0F9CFC60FC0937E00C830A9
:10112000C8F338CFDF91CF911F910F91FF900895B1
:10113000811124C090918B019B01290F311D2F3FFC
:10114000310509F0CCF437FD02C0892F860F80935A
:101150008B01682F70E090E080E0D2D526E935E978
:1011600046E95EE359D620E030E044E353E431D56C
:1011700099D560938C011ECD8FEFE9CF80918A01C4
:101180009B01280F311D2F3F310509F02CF4680F0A
:1011900037FF03C06FEF01C060E060938A01EBCFBF
:1011A0001F920F920FB60F9211242F933F938F939C
:1011B0009F93AF93BF938091FB009091FC00A0910F
:1011C000FD00B091FE003091AE0026E0230F2D37D8
:1011D00058F50296A11DB11D2093AE008093FB002F
:1011E0009093FC00A093FD00B093FE008091AF00AF
:1011F0009091B000A091B100B091B2000196A11DF4
:10120000B11D8093AF009093B000A093B100B09354
:10121000B200BF91AF919F918F913F912F910F900D
:101220000FBE0F901F90189529E8230F0396A11D5C
:10123000B11DD2CF1F920F920FB60F9211242F9390
:101240003F934F935F936F937F938F939F93AF934E
:10125000BF93EF93FF9380E05CD78093D20082E04E
:1012600058D78093D00081E054D78093CE0081E09E
:101270008093FA00FF91EF91BF91AF919F918F9171
:101280007F916F915F914F913F912F910F900FBE82
:101290000F901F901895CF93EBE0F1E0CFEFC08354
:1012A00012821182148613868FEF9FEFDC018783F1
:1012B0009087A187B287EAE8F1E01082C1838EEFC0
:1012C0008283EFE6F1E0108211821282138214828F
:1012D000158216821782108611861286138614864E
:1012E000158616861786108A118A128A138A148A1E
:1012F000158A168A178A108E118E128E64E571E097
:101300008AE891E0DAD867E571E08AE891E0D5D81B
:101310006AE571E08AE891E0D0D86DE571E08AE88D
:1013200091E0CBD860E671E08AE891E0C6D863E648
:1013300071E08AE891E0C1D866E671E08AE891E060
:10134000BCD869E671E08AE891E0B7D86CE671E054
:101350008AE891E0B2D8E9E3F1E0C08385E08183D7
:101360008283C38396E894838583C68387EF8783CC
:10137000108682E28187C287138614868587C68796
:101380001786808BC18B128A838BC48B158A868BC0
:10139000C78B8EEA808F118EC28FE8E1F1E0108258
:1013A00080EC83831482C583CF91089578948AB5A5
:1013B00082608ABD8AB581608ABD83B7826083BF3F
:1013C00083B7816083BF89B7826089BF80B782603D
:1013D00080BF80B7816080BF329A319A3098379A47
:1013E0008CB580648CBD62E080E0BBD662E082E0B8
:1013F000B8D662E081E0B5D661E083E0B2D6E7E43A
:10140000F0E08491EDE3F0E0D491E3E3F0E0C49107
:10141000CC2391F0811167D6EC2FF0E0EE0FFF1F87
:10142000E65DFF4FA591B4918FB7F8949C91ED2F95
:10143000E095E923EC938FBF64E170E080E090E0F9
:101440000CD808E111E0D0E0C0E0CE0154D3F8019F
:1014500081938F012196C132D105B9F764E170E023
:1014600080E090E0FAD780911801833271F5809185
:10147000190180937F0080911A018093D50080919B
:101480001B0180937E0080911C0180938A016091F2
:101490001D0160938B0170E090E080E031D426E97B
:1014A00035E946E95EE3B8D420E030E044E353E4B4
:1014B00090D3F8D360938C018BE1EEE1F1E0A9E3E6
:1014C000B1E001900D928A95E1F78091C6008111FB
:1014D00045C01092B8001092B7008FEF8093BB0008
:1014E0008093BC008093BD008093BE008093BF00BA
:1014F0008093C00081E08093C1001092C3001092DD
:10150000C2001092BA001092B9008091050190912A
:101510000601892B31F485EB90E0909306018093CE
:101520000501E091B300F091B400309721F085EB14
:1015300090E09583848385EB90E09093B400809352
:10154000B3001092C5001092C4008BE990E0909314
:10155000B6008093B50081E08093C600BC9A8FE608
:1015600091E09093B8008093B70089E090E0909369
:10157000C3008093C20080910E0190910F01A09151
:101580001001B0911101843CF9E09F07A105B1055C
:1015900020F484EC99E0A0E0B0E080930E019093F9
:1015A0000F01A0931001B093110180917F008093EF
:1015B0000B0100DBF89480E28BBFA89AAA9AA99A43
:1015C000789490E0292E90E0392E23E0B22EAA24C0
:1015D000A3948091FA00882351F11092F900809130
:1015E000D2006091D300B0DAD82F8093D3008091DD
:1015F000D0006091D100A8DAC82F8093D1008091EB
:10160000CE006091CF00A0DA8093CF009D2F9D7F08
:10161000913009F0CAC0C23009F0BCC01092D100AC
:10162000B092D30024E02093F9001092FA00809148
:10163000F900882359F09091D6009111CCC061E057
:1016400070E0853009F4CBC01092F90080918200DF
:10165000882309F499C0C0918000D09181008091C5
:10166000F7009091F800892B91F48BE1EFE6F1E01F
:10167000ACEDB0E001900D928A95E1F79BDA109203
:10168000D8001092D9001092DA001092DB008091FD
:101690008200882309F46DC1BE0177278091F7008D
:1016A0009091F800861797070CF063C180E091E0F5
:1016B0002FD4072E000C880B990B22D32091D80031
:1016C0003091D9004091DA005091DB0082D26B0159
:1016D0007C01C092D800D092D900E092DA00F0925A
:1016E000DB000CED10E08FE6482E81E0582EC4E5BB
:1016F000D1E0C701B601D1D28FEF860FF801A081EA
:10170000B1814281882331F08F3F09F0F9C0A8816F
:10171000B9814A81F201A083B18342830D5F1F4FDB
:10172000F3E04F0E511C239687EF90E0801791074E
:1017300001F78FB7F894C090FB00D090FC00E090C8
:10174000FD00F090FE008FBF61E070E080E090E06F
:1017500084D65ED52FB7F8948091FB009091FC0061
:10176000A091FD00B091FE002FBFC816D906EA0671
:10177000FB0651F34DD58091F7009091F80001964A
:101780009093F8008093F7002114310409F421CFDD
:1017900037D41FCF823009F048CF1092CF00B092DB
:1017A000D30085E08093F90040CFD23029F4109225
:1017B000D300A092F90039CFC23029F41092D100A1
:1017C000C093F90032CF823009F02FCF1092CF00B2
:1017D000B092F9002ACF843029F46FEF7FEF85E0D3
:1017E000C0DB32CF913059F468EF7FEF823029F0BF
:1017F000833009F024CF68E070E087E0F1CF9230C9
:1018000059F46FEF7FEF823029F0833009F017CF62
:1018100061E070E084E0E4CF933009F015CF8130CF
:1018200021F461E070E086E09CDB8091F900853076
:1018300021F470E060E088E094DB8091D5008111B4
:1018400032C08091D40081110EC08091F9008330A4
:1018500021F461E070E082E0C3CF6FEF7FEF823070
:1018600009F0F2CEBDCF813071F48091F90068E0CB
:1018700070E0833029F0823009F0E6CE68EF7FEF28
:1018800081E056DCE1CE823009F0DECE8091F900B5
:1018900068E070E0833029F0823009F0D5CE68EF3F
:1018A0007FEF80E0EECF9FEF980F923090F4209181
:1018B000D40021111AC08091F90068E070E08330F3
:1018C00009F48ECF823009F0BFCE68EF7FEF83E05E
:1018D00087CF833051F48091D400882331F28091F6
:1018E000D400813009F0B0CED1CF823029F480917C
:1018F000D4008230A1F7B9CF933008F0A5CEEFCF56
:10190000E8816195862E912C682E712C8A2F90E0AB
:10191000F0E09C012E0F3F1FB401E9D2280F391FC0
:10192000CF01B301E4D2820F931FA92FE9818B2F3E
:1019300090E0F0E09C012E0F3F1FB401D8D2280F99
:10194000391FCF01B301D3D2820F931FB92FEA8180
:10195000842F90E0F0E09C012E0F3F1FB401C7D20E
:10196000280F391FCF01B301C2D2280F391F432FCF
:10197000D1CEA092D7008BE1E4E5F1E0AFE6B1E093
:1019800001900D928A95E1F743D41092F8001092DD
:10199000F7001092D8001092D9001092DA0010923D
:1019A000DB0080918200813009F0EECE109282003F
:1019B000EBCE8F929F92AF92BF92CF92DF92EF9237
:1019C000FF92CF93DF93EC01688179818A819B81BB
:1019D000611571058105910521F464E279ED8BE5CE
:1019E00097E02DE133EF41E050E0B4D049015A01D6
:1019F00027EA31E440E050E094D06B017C012CEE0A
:101A000034EF4FEF5FEFC501B4018BD0C60ED71E88
:101A1000E81EF91EF7FE06C081E0C81AD108E108E9
:101A200080E8F80AC882D982EA82FB82C701B6013F
:101A30009F77DF91CF91FF90EF90DF90CF90BF9095
:101A4000AF909F908F9008958F929F92AF92BF9288
:101A5000CF92DF92EF92FF926091830070918400A9
:101A60008091850090918600611571058105910531
:101A700021F464E279ED8BE597E02DE133EF41E06D
:101A800050E068D049015A0127EA31E440E050E0D3
:101A900048D06B017C012CEE34EF4FEF5FEFC501B6
:101AA000B4013FD0C60ED71EE81EF91EF7FE06C0D1
:101AB00081E0C81AD108E10880E8F80AC0928300E2
:101AC000D0928400E0928500F0928600C701B601B2
:101AD0009F77FF90EF90DF90CF90BF90AF909F9057
:101AE0008F900895609383007093840080938500A5
:101AF000909386000895E199FECF9FBB8EBBE09A3C
:101B000099278DB30895262FE199FECF1CBA9FBB6C
:101B10008EBB2DBB0FB6F894E29AE19A0FBE0196E8
:101B20000895EE27FF27AA27BB2708C0A20FB31FDF
:101B3000E41FF51F220F331F441F551F96958795ED
:101B40007795679598F37040A9F7009799F7BD01CD
:101B5000CF010895052E97FB16F400940FD057FD82
:101B600005D014D007FC02D046F408C0509540952B
:101B7000309521953F4F4F4F5F4F08959095809539
:101B8000709561957F4F8F4F9F4F0895A1E21A2E58
:101B9000AA1BBB1BFD010DC0AA1FBB1FEE1FFF1F11
:101BA000A217B307E407F50720F0A21BB30BE40B61
:101BB000F50B661F771F881F991F1A9469F76095A8
:101BC0007095809590959B01AC01BD01CF01089562
:101BD0005058BB27AA270ED0E5C0D6D030F0DBD0B6
:101BE00020F031F49F3F11F41EF4CBC00EF4E095C9
:101BF000E7FBC1C0E92FE7D080F3BA17620773078C
:101C00008407950718F071F49EF5FFC00EF4E09577
:101C10000B2EBA2FA02D0B01B90190010C01CA01A6
:101C2000A0011124FF27591B99F0593F50F4503E51
:101C300068F11A16F040A22F232F342F4427585F43
:101C4000F3CF469537952795A795F0405395C9F75B
:101C50007EF41F16BA0B620B730B840BBAF0915013
:101C6000A1F0FF0FBB1F661F771F881FC2F70EC0B2
:101C7000BA0F621F731F841F48F487957795679585
:101C8000B795F7959E3F08F0B3CF9395880F08F06E
:101C90009927EE0F97958795089504D06894B11110
:101CA000B5C0089598D088F09F5790F0B92F992724
:101CB000B751A0F0D1F0660F771F881F991F1AF057
:101CC000BA95C9F712C0B13081F09FD0B1E0089544
:101CD0009CC0672F782F8827B85F39F0B93FCCF3C5
:101CE000869577956795B395D9F73EF4909580954D
:101CF000709561957F4F8F4F9F4F0895E89409C06D
:101D000097FB3EF490958095709561957F4F8F4F2E
:101D10009F4F9923A9F0F92F96E9BB279395F69544
:101D2000879577956795B795F111F8CFFAF4BB0FC2
:101D300011F460FF1BC06F5F7F4F8F4F9F4F16C026
:101D4000882311F096E911C0772321F09EE8872FB0
:101D5000762F05C0662371F096E8862F70E060E06C
:101D60002AF09A95660F771F881FDAF7880F9695E5
:101D7000879597F9089597F99F6780E870E060E08C
:101D800008959FEF80EC089500240A941616170614
:101D900018060906089500240A941216130614065C
:101DA00005060895092E0394000C11F4882352F0BF
:101DB000BB0F40F4BF2B11F460FF04C06F5F7F4F77
:101DC0008F4F9F4F089557FD9058440F551F59F05E
:101DD0005F3F71F04795880F97FB991F61F09F3F18
:101DE00079F087950895121613061406551FF2CF41
:101DF0004695F1DF08C0161617061806991FF1CF91
:101E000086957105610508940895E894BB276627B7
:101E10007727CB0197F908950AD0C4CFB5DF28F012
:101E2000BADF18F0952309F0A6CFABCFEFCFCBDF09
:101E3000A8F39923D9F35523C9F3950F50E0551F03
:101E4000AA27EE27FF27BB2700240894679520F4D4
:101E5000E20FF31FB41F0A1E220F331F441FAA1FD5
:101E60006695A9F7779530F4F30FB41F0A1E121E7A
:101E700008F46395330F441FAA1F221F769599F724
:101E8000879520F4B40F0A1E121E631F440FAA1F69
:101E9000221F331F8695A9F7862F712D602D1124DF
:101EA0009F5750408AF0E1F088234AF0EE0FFF1F61
:101EB000BB1F661F771F881F91505040A9F79E3F98
:101EC000510570F058CFA2CF5F3FECF3983EDCF3A2
:101ED000869577956795B795F795E7959F5FC1F7D5
:101EE000FE2B880F911D9695879597F908950024EC
:101EF000552704C0080E591F880F991F009729F015
:101F000076956795B8F37105B9F7802D952F0895EB
:101F100097FB072E16F4009406D077FD08D00BD05F
:101F200007FC05D03EF4909581959F4F08957095DC
:101F300061957F4F0895AA1BBB1B51E107C0AA1FE3
:101F4000BB1FA617B70710F0A61BB70B881F991F5A
:101F50005A95A9F780959095BC01CD010895EE0F93
:101F6000FF1F0590F491E02D099481E090E0F89432
:061F700000C0F894FFCF51
:101F76000100000000010100000001020000000154
:101F86000300000004040506070108000000C01055
:101F96002800010100000000000000D905D905D97C
:101FA60005B805B405B1050000000062051F051D52
:0A1FB60005B805B4057000550300DE
:00000001FF
